{
  "transactions": [
    {
      "hash": "0xa86069f5704db0404bed778ae9fafd6b681dcabe8539c9b64a493741cb4a7972",
      "transactionType": "CALL",
      "contractName": null,
      "contractAddress": "0x4200000000000000000000000000000000000006",
      "function": "approve(address,uint256)",
      "arguments": [
        "0x000000000022D473030F116dDEE9F6B43aC78BA3",
        "115792089237316195423570985008687907853269984665640564039457584007913129639935"
      ],
      "transaction": {
        "from": "0x681df770569039282e45fae6f94fbb3eed0bb1b4",
        "to": "0x4200000000000000000000000000000000000006",
        "gas": "0xfa60",
        "value": "0x0",
        "input": "0x095ea7b3000000000000000000000000000000000022d473030f116ddee9f6b43ac78ba3ffffffffffffffffffffffffffffffffffffffffffffffffffffffffffffffff",
        "nonce": "0x3",
        "chainId": "0x82"
      },
      "additionalContracts": [],
      "isFixedGasLimit": false
    },
    {
      "hash": "0x6517efd85455642d03c936b5bdfbbad2b922bbd891a836fd889f3cdb9603d662",
      "transactionType": "CALL",
      "contractName": null,
      "contractAddress": "0x000000000022d473030f116ddee9f6b43ac78ba3",
      "function": "approve(address,address,uint160,uint48)",
      "arguments": [
        "0x4200000000000000000000000000000000000006",
        "0x4529A01c7A0410167c5740C487A8DE60232617bf",
        "1461501637330902918203684832716283019655932542975",
        "281474976710655"
      ],
      "transaction": {
        "from": "0x681df770569039282e45fae6f94fbb3eed0bb1b4",
        "to": "0x000000000022d473030f116ddee9f6b43ac78ba3",
        "gas": "0x10ff1",
        "value": "0x0",
        "input": "0x87517c4500000000000000000000000042000000000000000000000000000000000000060000000000000000000000004529a01c7a0410167c5740c487a8de60232617bf000000000000000000000000ffffffffffffffffffffffffffffffffffffffff0000000000000000000000000000000000000000000000000000ffffffffffff",
        "nonce": "0x4",
        "chainId": "0x82"
      },
      "additionalContracts": [],
      "isFixedGasLimit": false
    },
    {
      "hash": "0x6589066cb00da55f9376eb60292691e0e7ce7c2671a57bdaf44dca76a892fe49",
      "transactionType": "CALL",
      "contractName": null,
      "contractAddress": "0x078d782b760474a361dda0af3839290b0ef57ad6",
      "function": "approve(address,uint256)",
      "arguments": [
        "0x000000000022D473030F116dDEE9F6B43aC78BA3",
        "115792089237316195423570985008687907853269984665640564039457584007913129639935"
      ],
      "transaction": {
        "from": "0x681df770569039282e45fae6f94fbb3eed0bb1b4",
        "to": "0x078d782b760474a361dda0af3839290b0ef57ad6",
        "gas": "0x12ca9",
        "value": "0x0",
        "input": "0x095ea7b3000000000000000000000000000000000022d473030f116ddee9f6b43ac78ba3ffffffffffffffffffffffffffffffffffffffffffffffffffffffffffffffff",
        "nonce": "0x5",
        "chainId": "0x82"
      },
      "additionalContracts": [],
      "isFixedGasLimit": false
    },
    {
      "hash": "0x3c0cbda983b94f15b0333fb9ef90f9730d73280668b8ab9385f1302e013140ec",
      "transactionType": "CALL",
      "contractName": null,
      "contractAddress": "0x000000000022d473030f116ddee9f6b43ac78ba3",
      "function": "approve(address,address,uint160,uint48)",
      "arguments": [
        "0x078D782b760474a361dDA0AF3839290b0EF57AD6",
        "0x4529A01c7A0410167c5740C487A8DE60232617bf",
        "1461501637330902918203684832716283019655932542975",
        "281474976710655"
      ],
      "transaction": {
        "from": "0x681df770569039282e45fae6f94fbb3eed0bb1b4",
        "to": "0x000000000022d473030f116ddee9f6b43ac78ba3",
        "gas": "0x1112d",
        "value": "0x0",
        "input": "0x87517c45000000000000000000000000078d782b760474a361dda0af3839290b0ef57ad60000000000000000000000004529a01c7a0410167c5740c487a8de60232617bf000000000000000000000000ffffffffffffffffffffffffffffffffffffffff0000000000000000000000000000000000000000000000000000ffffffffffff",
        "nonce": "0x6",
        "chainId": "0x82"
      },
      "additionalContracts": [],
      "isFixedGasLimit": false
    },
    {
      "hash": "0x6aee756a840fa0fc6f84d49062656cbcea25489f79891b8b9e81674073f2df0f",
      "transactionType": "CALL",
      "contractName": null,
      "contractAddress": "0x4529a01c7a0410167c5740c487a8de60232617bf",
      "function": "multicall(bytes[])",
      "arguments": [
        "[0xf7020405000000000000000000000000078d782b760474a361dda0af3839290b0ef57ad600000000000000000000000042000000000000000000000000000000000000060000000000000000000000000000000000000000000000000000000000000bb8000000000000000000000000000000000000000000000000000000000000003c0000000000000000000000000000000000000000000000000000000000000000000000000000000000000000000000000000000100000000000000000000000000000000000000000000000000000000000000000000000000000000000000e00000000000000000000000000000000000000000000000000000000000000000, 0xdd46508f00000000000000000000000000000000000000000000000000000000000000400000000000000000000000000000000000000000000000000000000067e95c2e0000000000000000000000000000000000000000000000000000000000000300000000000000000000000000000000000000000000000000000000000000004000000000000000000000000000000000000000000000000000000000000000800000000000000000000000000000000000000000000000000000000000000002020d00000000000000000000000000000000000000000000000000000000000000000000000000000000000000000000000000000000000000000000000000020000000000000000000000000000000000000000000000000000000000000040000000000000000000000000000000000000000000000000000000000000020000000000000000000000000000000000000000000000000000000000000001a0000000000000000000000000078d782b760474a361dda0af3839290b0ef57ad600000000000000000000000042000000000000000000000000000000000000060000000000000000000000000000000000000000000000000000000000000bb8000000000000000000000000000000000000000000000000000000000000003c0000000000000000000000000000000000000000000000000000000000000000fffffffffffffffffffffffffffffffffffffffffffffffffffffffffff2764c00000000000000000000000000000000000000000000000000000000000d89b4000000000000000000000000000000000000000000000000000000000112a880000000000000000000000000000000000000000000000000000000000112a881000000000000000000000000000000000000000000000000002386f26fc100010000000000000000000000005b73c5498c1e3b4dba84de0f1833c4a029d90519000000000000000000000000000000000000000000000000000000000000018000000000000000000000000000000000000000000000000000000000000000000000000000000000000000000000000000000000000000000000000000000040000000000000000000000000078d782b760474a361dda0af3839290b0ef57ad60000000000000000000000004200000000000000000000000000000000000006]"
      ],
      "transaction": {
        "from": "0x681df770569039282e45fae6f94fbb3eed0bb1b4",
        "to": "0x4529a01c7a0410167c5740c487a8de60232617bf",
        "gas": "0xa3048",
        "value": "0x0",
        "input": "0xac9650d800000000000000000000000000000000000000000000000000000000000000200000000000000000000000000000000000000000000000000000000000000002000000000000000000000000000000000000000000000000000000000000004000000000000000000000000000000000000000000000000000000000000001800000000000000000000000000000000000000000000000000000000000000104f7020405000000000000000000000000078d782b760474a361dda0af3839290b0ef57ad600000000000000000000000042000000000000000000000000000000000000060000000000000000000000000000000000000000000000000000000000000bb8000000000000000000000000000000000000000000000000000000000000003c0000000000000000000000000000000000000000000000000000000000000000000000000000000000000000000000000000000100000000000000000000000000000000000000000000000000000000000000000000000000000000000000e00000000000000000000000000000000000000000000000000000000000000000000000000000000000000000000000000000000000000000000000000000000000000000000000000000000000000000000000000000000000000364dd46508f00000000000000000000000000000000000000000000000000000000000000400000000000000000000000000000000000000000000000000000000067e95c2e0000000000000000000000000000000000000000000000000000000000000300000000000000000000000000000000000000000000000000000000000000004000000000000000000000000000000000000000000000000000000000000000800000000000000000000000000000000000000000000000000000000000000002020d00000000000000000000000000000000000000000000000000000000000000000000000000000000000000000000000000000000000000000000000000020000000000000000000000000000000000000000000000000000000000000040000000000000000000000000000000000000000000000000000000000000020000000000000000000000000000000000000000000000000000000000000001a0000000000000000000000000078d782b760474a361dda0af3839290b0ef57ad600000000000000000000000042000000000000000000000000000000000000060000000000000000000000000000000000000000000000000000000000000bb8000000000000000000000000000000000000000000000000000000000000003c0000000000000000000000000000000000000000000000000000000000000000fffffffffffffffffffffffffffffffffffffffffffffffffffffffffff2764c00000000000000000000000000000000000000000000000000000000000d89b4000000000000000000000000000000000000000000000000000000000112a880000000000000000000000000000000000000000000000000000000000112a881000000000000000000000000000000000000000000000000002386f26fc100010000000000000000000000005b73c5498c1e3b4dba84de0f1833c4a029d90519000000000000000000000000000000000000000000000000000000000000018000000000000000000000000000000000000000000000000000000000000000000000000000000000000000000000000000000000000000000000000000000040000000000000000000000000078d782b760474a361dda0af3839290b0ef57ad6000000000000000000000000420000000000000000000000000000000000000600000000000000000000000000000000000000000000000000000000",
        "nonce": "0x7",
        "chainId": "0x82"
      },
      "additionalContracts": [],
      "isFixedGasLimit": false
    }
  ],
  "receipts": [
    {
      "status": "0x1",
      "cumulativeGasUsed": "0x3f329",
      "logs": [
        {
          "address": "0x4200000000000000000000000000000000000006",
          "topics": [
            "0x8c5be1e5ebec7d5bd14f71427d1e84f3dd0314c0f7b2291e5b200ac8c7c3b925",
            "0x000000000000000000000000681df770569039282e45fae6f94fbb3eed0bb1b4",
            "0x000000000000000000000000000000000022d473030f116ddee9f6b43ac78ba3"
          ],
          "data": "0xffffffffffffffffffffffffffffffffffffffffffffffffffffffffffffffff",
          "blockHash": "0x1ad9217b1a68ff54aaa32fef05b86ce4d8d2630b3c695cb50476935a001e67bd",
          "blockNumber": "0xc03c31",
          "transactionHash": "0xa86069f5704db0404bed778ae9fafd6b681dcabe8539c9b64a493741cb4a7972",
          "transactionIndex": "0x5",
          "logIndex": "0x2",
          "removed": false
        }
      ],
      "logsBloom": "0x00000000200000000000000000000000000000000000000000040000000000000000000000000000000000100000000000000000800000000000000000200000000000000000000000004000000000000000000000000800000000000000000000000000000000000000000000000000000000000000000000000000000000000000000000000000000000000000000000000000002000000000000000000000020000000000000000000000000000000000000000000000000000000000000000000000000000000800000000000000000000000000000000000000000000000010000000000000000000000000020000000000000000000000000000000000",
      "type": "0x2",
      "transactionHash": "0xa86069f5704db0404bed778ae9fafd6b681dcabe8539c9b64a493741cb4a7972",
      "transactionIndex": "0x5",
      "blockHash": "0x1ad9217b1a68ff54aaa32fef05b86ce4d8d2630b3c695cb50476935a001e67bd",
      "blockNumber": "0xc03c31",
      "gasUsed": "0xb545",
      "effectiveGasPrice": "0xfd",
      "from": "0x681df770569039282e45fae6f94fbb3eed0bb1b4",
      "to": "0x4200000000000000000000000000000000000006",
      "contractAddress": null,
      "l1BaseFeeScalar": "0x7d0",
      "l1BlobBaseFee": "0x337",
      "l1BlobBaseFeeScalar": "0xdbba0",
      "l1Fee": "0x45f23e49",
      "l1GasPrice": "0x15db590c",
      "l1GasUsed": "0x640"
    },
    {
      "status": "0x1",
      "cumulativeGasUsed": "0x4ad1b",
      "logs": [
        {
          "address": "0x000000000022d473030f116ddee9f6b43ac78ba3",
          "topics": [
            "0xda9fa7c1b00402c17d0161b249b1ab8bbec047c5a52207b9c112deffd817036b",
            "0x000000000000000000000000681df770569039282e45fae6f94fbb3eed0bb1b4",
            "0x0000000000000000000000004200000000000000000000000000000000000006",
            "0x0000000000000000000000004529a01c7a0410167c5740c487a8de60232617bf"
          ],
          "data": "0x000000000000000000000000ffffffffffffffffffffffffffffffffffffffff0000000000000000000000000000000000000000000000000000ffffffffffff",
          "blockHash": "0x1ad9217b1a68ff54aaa32fef05b86ce4d8d2630b3c695cb50476935a001e67bd",
          "blockNumber": "0xc03c31",
          "transactionHash": "0x6517efd85455642d03c936b5bdfbbad2b922bbd891a836fd889f3cdb9603d662",
          "transactionIndex": "0x6",
          "logIndex": "0x3",
          "removed": false
        }
      ],
      "logsBloom": "0x0001000020000000000000000000000000000000000000000000000000000000000000000000000000000000000000000000000000000000002000000008000000000000000000000000000000000000000000000000000000000000000000000000000000000000000000000000000000001000000000000000000000000000002000000000000000000000000000000000000000000000000000800000000000000080000000000000000000000000000000000000000000000008000000000000000000000c000800000000000000000000000000000040000000000000000000000000000000000000000000020000000000000000000000000000000400",
      "type": "0x2",
      "transactionHash": "0x6517efd85455642d03c936b5bdfbbad2b922bbd891a836fd889f3cdb9603d662",
      "transactionIndex": "0x6",
      "blockHash": "0x1ad9217b1a68ff54aaa32fef05b86ce4d8d2630b3c695cb50476935a001e67bd",
      "blockNumber": "0xc03c31",
      "gasUsed": "0xb9f2",
      "effectiveGasPrice": "0xfd",
      "from": "0x681df770569039282e45fae6f94fbb3eed0bb1b4",
      "to": "0x000000000022d473030f116ddee9f6b43ac78ba3",
      "contractAddress": null,
      "l1BaseFeeScalar": "0x7d0",
      "l1BlobBaseFee": "0x337",
      "l1BlobBaseFeeScalar": "0xdbba0",
      "l1Fee": "0x45f23e49",
      "l1GasPrice": "0x15db590c",
      "l1GasUsed": "0x640"
    },
    {
      "status": "0x1",
      "cumulativeGasUsed": "0x586c8",
      "logs": [
        {
          "address": "0x078d782b760474a361dda0af3839290b0ef57ad6",
          "topics": [
            "0x8c5be1e5ebec7d5bd14f71427d1e84f3dd0314c0f7b2291e5b200ac8c7c3b925",
            "0x000000000000000000000000681df770569039282e45fae6f94fbb3eed0bb1b4",
            "0x000000000000000000000000000000000022d473030f116ddee9f6b43ac78ba3"
          ],
          "data": "0xffffffffffffffffffffffffffffffffffffffffffffffffffffffffffffffff",
          "blockHash": "0x1ad9217b1a68ff54aaa32fef05b86ce4d8d2630b3c695cb50476935a001e67bd",
          "blockNumber": "0xc03c31",
          "transactionHash": "0x6589066cb00da55f9376eb60292691e0e7ce7c2671a57bdaf44dca76a892fe49",
          "transactionIndex": "0x7",
          "logIndex": "0x4",
          "removed": false
        }
      ],
      "logsBloom": "0x00000000200000000000000000000000000000000000000000000000000000000000000000000000000000000000000000000000800000000000000000200000000000000000000000004000000000000000200000000800000000000000000000000000000000000000000000000000000000000000000000000000000000000000000000000000000000000000000000000000000000000000000000000000020000000000000000000000000000000000000000000000000000000000000000000000000000000800000000000000000000000000000000000000000000000010000000000000000000000000020000402000000000000000000000000000",
      "type": "0x2",
      "transactionHash": "0x6589066cb00da55f9376eb60292691e0e7ce7c2671a57bdaf44dca76a892fe49",
      "transactionIndex": "0x7",
      "blockHash": "0x1ad9217b1a68ff54aaa32fef05b86ce4d8d2630b3c695cb50476935a001e67bd",
      "blockNumber": "0xc03c31",
      "gasUsed": "0xd9ad",
      "effectiveGasPrice": "0xfd",
      "from": "0x681df770569039282e45fae6f94fbb3eed0bb1b4",
      "to": "0x078d782b760474a361dda0af3839290b0ef57ad6",
      "contractAddress": null,
      "l1BaseFeeScalar": "0x7d0",
      "l1BlobBaseFee": "0x337",
      "l1BlobBaseFeeScalar": "0xdbba0",
      "l1Fee": "0x45f23e49",
      "l1GasPrice": "0x15db590c",
      "l1GasUsed": "0x640"
    },
    {
      "status": "0x1",
      "cumulativeGasUsed": "0x64192",
      "logs": [
        {
          "address": "0x000000000022d473030f116ddee9f6b43ac78ba3",
          "topics": [
            "0xda9fa7c1b00402c17d0161b249b1ab8bbec047c5a52207b9c112deffd817036b",
            "0x000000000000000000000000681df770569039282e45fae6f94fbb3eed0bb1b4",
            "0x000000000000000000000000078d782b760474a361dda0af3839290b0ef57ad6",
            "0x0000000000000000000000004529a01c7a0410167c5740c487a8de60232617bf"
          ],
          "data": "0x000000000000000000000000ffffffffffffffffffffffffffffffffffffffff0000000000000000000000000000000000000000000000000000ffffffffffff",
          "blockHash": "0x1ad9217b1a68ff54aaa32fef05b86ce4d8d2630b3c695cb50476935a001e67bd",
          "blockNumber": "0xc03c31",
          "transactionHash": "0x3c0cbda983b94f15b0333fb9ef90f9730d73280668b8ab9385f1302e013140ec",
          "transactionIndex": "0x8",
          "logIndex": "0x5",
          "removed": false
        }
      ],
      "logsBloom": "0x00010000200000000000000000000000000000000000000000000000000000000000000000000000000000000000000000000000000000000000000000080000000000000000000000000000000000000000000000000800000000000000000000000000000000000000000000000000000000000000000000000000000000000020000000000000000000000000000000000000080000000000008000000000000000800000000000000000000000000000000000000000000000080000000000000000000008000800000000000000000000000000000040000000000000000000000000000000000000000000020000000000000000200000000000000400",
      "type": "0x2",
      "transactionHash": "0x3c0cbda983b94f15b0333fb9ef90f9730d73280668b8ab9385f1302e013140ec",
      "transactionIndex": "0x8",
      "blockHash": "0x1ad9217b1a68ff54aaa32fef05b86ce4d8d2630b3c695cb50476935a001e67bd",
      "blockNumber": "0xc03c31",
      "gasUsed": "0xbaca",
      "effectiveGasPrice": "0xfd",
      "from": "0x681df770569039282e45fae6f94fbb3eed0bb1b4",
      "to": "0x000000000022d473030f116ddee9f6b43ac78ba3",
      "contractAddress": null,
      "l1BaseFeeScalar": "0x7d0",
      "l1BlobBaseFee": "0x337",
      "l1BlobBaseFeeScalar": "0xdbba0",
      "l1Fee": "0x4af229e6",
      "l1GasPrice": "0x15db590c",
      "l1GasUsed": "0x6b2"
    },
    {
      "status": "0x1",
      "cumulativeGasUsed": "0xd3903",
      "logs": [
        {
          "address": "0x1f98400000000000000000000000000000000004",
          "topics": [
            "0xdd466e674ea557f56295e2d0218a125ea4b4f0f6f3307b95f85e6110838d6438",
            "0xbba55e47272aedad20dd81fad773ae06e8e21f7b845a3586e0f191bf5a94fb46",
            "0x000000000000000000000000078d782b760474a361dda0af3839290b0ef57ad6",
            "0x0000000000000000000000004200000000000000000000000000000000000006"
          ],
          "data": "0x0000000000000000000000000000000000000000000000000000000000000bb8000000000000000000000000000000000000000000000000000000000000003c000000000000000000000000000000000000000000000000000000000000000000000000000000000000000000000000000000010000000000000000000000000000000000000000000000000000000000000000000000000000000000000000",
          "blockHash": "0x1ad9217b1a68ff54aaa32fef05b86ce4d8d2630b3c695cb50476935a001e67bd",
          "blockNumber": "0xc03c31",
          "transactionHash": "0x6aee756a840fa0fc6f84d49062656cbcea25489f79891b8b9e81674073f2df0f",
          "transactionIndex": "0x9",
          "logIndex": "0x6",
          "removed": false
        },
        {
          "address": "0x4529a01c7a0410167c5740c487a8de60232617bf",
          "topics": [
            "0xddf252ad1be2c89b69c2b068fc378daa952ba7f163c4a11628f55a4df523b3ef",
            "0x0000000000000000000000000000000000000000000000000000000000000000",
            "0x0000000000000000000000005b73c5498c1e3b4dba84de0f1833c4a029d90519",
            "0x000000000000000000000000000000000000000000000000000000000000783f"
          ],
          "data": "0x",
          "blockHash": "0x1ad9217b1a68ff54aaa32fef05b86ce4d8d2630b3c695cb50476935a001e67bd",
          "blockNumber": "0xc03c31",
          "transactionHash": "0x6aee756a840fa0fc6f84d49062656cbcea25489f79891b8b9e81674073f2df0f",
          "transactionIndex": "0x9",
          "logIndex": "0x7",
          "removed": false
        },
        {
          "address": "0x1f98400000000000000000000000000000000004",
          "topics": [
            "0xf208f4912782fd25c7f114ca3723a2d5dd6f3bcc3ac8db5af63baa85f711d5ec",
            "0xbba55e47272aedad20dd81fad773ae06e8e21f7b845a3586e0f191bf5a94fb46",
            "0x0000000000000000000000004529a01c7a0410167c5740c487a8de60232617bf"
          ],
          "data": "0xfffffffffffffffffffffffffffffffffffffffffffffffffffffffffff2764c00000000000000000000000000000000000000000000000000000000000d89b4000000000000000000000000000000000000000000000000000000000112a880000000000000000000000000000000000000000000000000000000000000783f",
          "blockHash": "0x1ad9217b1a68ff54aaa32fef05b86ce4d8d2630b3c695cb50476935a001e67bd",
          "blockNumber": "0xc03c31",
          "transactionHash": "0x6aee756a840fa0fc6f84d49062656cbcea25489f79891b8b9e81674073f2df0f",
          "transactionIndex": "0x9",
          "logIndex": "0x8",
          "removed": false
        },
        {
          "address": "0x078d782b760474a361dda0af3839290b0ef57ad6",
          "topics": [
            "0xddf252ad1be2c89b69c2b068fc378daa952ba7f163c4a11628f55a4df523b3ef",
            "0x000000000000000000000000681df770569039282e45fae6f94fbb3eed0bb1b4",
            "0x0000000000000000000000001f98400000000000000000000000000000000004"
          ],
          "data": "0x000000000000000000000000000000000000000000000000000000000112a880",
          "blockHash": "0x1ad9217b1a68ff54aaa32fef05b86ce4d8d2630b3c695cb50476935a001e67bd",
          "blockNumber": "0xc03c31",
          "transactionHash": "0x6aee756a840fa0fc6f84d49062656cbcea25489f79891b8b9e81674073f2df0f",
          "transactionIndex": "0x9",
          "logIndex": "0x9",
          "removed": false
        },
        {
          "address": "0x4200000000000000000000000000000000000006",
          "topics": [
            "0xddf252ad1be2c89b69c2b068fc378daa952ba7f163c4a11628f55a4df523b3ef",
            "0x000000000000000000000000681df770569039282e45fae6f94fbb3eed0bb1b4",
            "0x0000000000000000000000001f98400000000000000000000000000000000004"
          ],
          "data": "0x000000000000000000000000000000000000000000000000000000000112a880",
          "blockHash": "0x1ad9217b1a68ff54aaa32fef05b86ce4d8d2630b3c695cb50476935a001e67bd",
          "blockNumber": "0xc03c31",
          "transactionHash": "0x6aee756a840fa0fc6f84d49062656cbcea25489f79891b8b9e81674073f2df0f",
          "transactionIndex": "0x9",
          "logIndex": "0xa",
          "removed": false
        }
      ],
      "logsBloom": "0x0000000020000000000000000000000000000000000000000004000000000000000000000000000000000010000000000000000040000000002000000000000000000000000000000000000800100000040020000000080000000000000010000000000002000200000000000000088000801000000000000004001000000000100001000100000800000000000000000001080108200000000000800020200000000480800000000000000210000000000000000000000000000000000000000000000200000c000800000000000000000000000000000000000000000420000000000000000000000000000000020004402000000000200000000000000200",
      "type": "0x2",
      "transactionHash": "0x6aee756a840fa0fc6f84d49062656cbcea25489f79891b8b9e81674073f2df0f",
      "transactionIndex": "0x9",
      "blockHash": "0x1ad9217b1a68ff54aaa32fef05b86ce4d8d2630b3c695cb50476935a001e67bd",
      "blockNumber": "0xc03c31",
      "gasUsed": "0x6f771",
      "effectiveGasPrice": "0xfd",
      "from": "0x681df770569039282e45fae6f94fbb3eed0bb1b4",
      "to": "0x4529a01c7a0410167c5740c487a8de60232617bf",
      "contractAddress": null,
      "l1BaseFeeScalar": "0x7d0",
      "l1BlobBaseFee": "0x337",
      "l1BlobBaseFeeScalar": "0xdbba0",
      "l1Fee": "0xbd0a614d",
      "l1GasPrice": "0x15db590c",
      "l1GasUsed": "0x10e4"
    }
  ],
  "libraries": [],
  "pending": [],
  "returns": {},
  "timestamp": 1743346686,
  "chain": 130,
  "commit": "9194f56"
}